:020000040800F2
:1000000058060020C5000008CD000008CF000008F9
:1000100000000000000000000000000000000000E0
:10002000000000000000000000000000D1000008F7
:100030000000000000000000D3000008B105000827
:10004000D700000800000000D7000008D700000813
:10005000D70000087D010008D7000008D70000087D
:1000600000000000D7000008D7000008D7000008F3
:10007000D7000008D7000008D700000800000000E3
:10008000D70000080000000000000000D7000008B2
:1000900000000000D7000008D7000008D7000008C3
:1000A00000000000D7000008000000002D06000836
:1000B0000348854600F050F80048004791070008C3
:1000C000580600200448804704480047FEE7FEE742
:1000D000FEE7FEE7FEE7FEE7B9050008B10000080D
:1000E00030B50B46014600202022012409E00D46D0
:1000F000D5409D4205D31D469540491B2546954058
:1001000040191546521E002DF1DC30BD70B500249B
:100110002546002801DA01244042002901DA0125A0
:100120004942FFF7DDFFAC4200D04042002C00D036
:10013000494270BDD2B201E00270401C491EFBD2A0
:1001400070470022F6E710B513460A4604461946E2
:10015000FFF7F0FF204610BD064C0125064E05E0D6
:10016000E36807CC2B430C3C98471034B442F7D3D8
:10017000FFF7A2FF740B0008940B000819484069B0
:10018000C007C00F002821D017480069C007C00F62
:10019000002809D10920C00640690121090308434C
:1001A0000921C906486108E00920C006406901210B
:1001B000090388430921C90648610A484069C00704
:1001C000C00F084948610120084908600548406996
:1001D00002210840002804D0024840690840014933
:1001E00048617047000401400004004810000020EE
:1001F000012914D10922D206904206D1134A52692C
:100200004B041A43114B5A611EE0114A90421BD114
:100210000E4A526903021A430C4B5A6114E0092238
:10022000D206904207D1094A526901235B049A43DE
:10023000064B5A6108E0064A904205D1034A5269CA
:1002400003029A43014B5A617047000000100240BC
:1002500000040048F8B506460F460020009000252F
:100260000024E4E03868E840C007C00F0090009820
:1002700000287DD00920C006864202D10121FFF767
:10028000B7FF6E48864202D10121FFF7B1FF346803
:10029000690003208840214681430C463879800755
:1002A000800F6900884004433068204330607868DC
:1002B000032800D1F8BD7868022815D1E80881002C
:1002C0003046203044586807C10E0F208840214630
:1002D00081430C466907C90E786988400443E808E1
:1002E00081003046203044507868012802D0786878
:1002F00002281BD174680120A840214681430C4686
:10030000387AC007C00FA84004437460B46869001D
:1003100003208840214681430C46387B8007800FAC
:10032000690088400443B0682043B060F468690005
:1003300003208840214681430C46387C8007800F8B
:10034000690088400443F460012109077868084087
:1003500000286BD03A4880690121084338498861F8
:100360003848A90889004458A807010F0F2000E069
:100370005CE08840214681430C460920C006864245
:1003800001D1002005E02D48864201D1012000E086
:100390000220A907090F884004432A48A9088900B8
:1003A0004450294804680120A840214681430C4656
:1003B0000121090678680840002802D00120A840E1
:1003C00004432148046044680120A8402146814339
:1003D0000C460121490678680840002802D0012017
:1003E000A84004431848446084680120A84021467E
:1003F00081430C460121090578680840002802D095
:100400000120A840044310488460C4680120A8402B
:10041000214681430C46012149057868084000289F
:1004200002D00120A84004430748C4606D1C38680E
:10043000E840002800D015E700BF3BE70004004873
:10044000001002400800014000040140C206D20E24
:1004500001219140014A11607047000000E100E075
:10046000014600200A784B789A4206DB0A784B78DE
:10047000D21A64239A1AD0B203E04A780B78D21ABF
:10048000D0B27047002101704170704701460020D2
:100490000A784B789A4204DB0A784B78D21AD0B2A9
:1004A00005E04A780B78D21A64239A1AD0B27047C2
:1004B00070B50446002665782046FFF7E7FF002860
:1004C00001D1304670BD2846691CCDB2A11C085C24
:1004D000FF2109020843064664212846FFF716FE5D
:1004E000CDB265703046EDE770B504460E4625780E
:1004F0002046FFF7B5FF022801DA002070BD28462C
:10050000691CCDB2A11C0E5464212846FFF7FEFDE4
:10051000CDB225700120F1E7174A0168914205D15B
:100520001649896992141143144A9161826841689D
:100530001143C26A1143026B114301235B028269BA
:100540001A4011430269114342691143026A11437F
:10055000426A1143026811608169090C042211404A
:10056000826A1143C2691143C2681143826B11430D
:1005700002685160704700000030014000100240E6
:10058000034A50610022024B9A611A46116170477A
:1005900000E000E0014800687047000030000020E3
:1005A00002480068401C0149086070473000002084
:1005B00000B5FFF7F5FF00BD1948006801210843A9
:1005C00017490860084640681649084014494860C1
:1005D0000846006814490840114908600846006848
:1005E0000121890488430E490860084640683F217C
:1005F000090488430A4948600846C06A00090001A6
:10060000C8620846006BFF2114318843044908631F
:100610000846406B400840004863002088607047EF
:10062000001002400CB8FF08FFFFF6FE10B50948A5
:10063000C06908210840002804D00648006A084321
:10064000044908620348406AC1B20348FFF74CFFFF
:1006500010BD0000003801402C010020016809682D
:100660004908490002681160154A0168914206D1A3
:1006700014498969012292031143124A9161026966
:100680004169114382681143C269114302681160D4
:100690000268C1685160026A816911430268916011
:1006A000D0210268D16001680968202211430268E4
:1006B00011600168096801221143026811607047E6
:1006C000003801400010024002E008C8121F08C1B3
:1006D000002AFAD170477047002001E001C1121FC3
:1006E000002AFBD17047000010B5032004490860C0
:1006F00004484860012008610348FFF7ABFD10BDC6
:100700007C000020000030110004004810B50320D8
:10071000C002064908600120486000208860086126
:10072000C8600920C006FFF795FD10BD3400002009
:1007300010B50320400208490860022048600020EC
:1007400088600320C8600120086148610920C00654
:10075000FFF780FD10BD00006400002010B50A48BE
:100760000A4908604B204002486000210748816127
:100770000C21416100210162C1610161C1608160A0
:10078000FFF76CFF10BD000000380140F8000020AA
:100790000020DF490860DF490870DF490860DF4951
:1007A0000860DF490860DF490870DF490860DF49F9
:1007B0000860DF4908700120DE4908700020DE492A
:1007C0000880DE4908703221DD48FFF7BAFCDD48B9
:1007D000FFF758FEF020DC49086002204860002046
:1007E00088600320C860012008610020486109205A
:1007F000C006FFF72FFDD548806901210903084392
:10080000D2498861D248D3490860FF20053048604A
:100810000021D0488160382101620221016100215C
:10082000416107210902C160012189048161002120
:10083000C16201638162012109038163FFF76CFEDC
:1008400000F08EF9FFF7A6FEC3490860FFF75EFFD0
:10085000FFF76EFFFFF782FFFFF746FF1B20FFF752
:10086000F5FD0520FFF7F2FD62B60920C0064069DC
:100870000321C90288430921C906486147E1A94803
:10088000007800281FD0FFF785FEA7490968401AA5
:10089000C82818D30920C00640690121C90288432D
:1008A0000921C90648619F480078401E9D4908708B
:1008B000FFF770FE9C490860FFF76CFE9B490860DB
:1008C0000120A6490860A548006800281AD0FFF753
:1008D00061FE96490968401AC82813D300209F4931
:1008E00008609048007800280CD00920C0064069B4
:1008F0000121C90208430921C9064861FFF74AFEE0
:10090000894908608F48FFF7D3FD8B490880084666
:100910000088002809D008460178864802780078C7
:10092000401C844B18708648815484480078002805
:1009300021D180480078401E8149085C55281AD191
:100940007C480078801E085CAA2814D17948007879
:10095000801E085C487077480078401E085C8870EC
:1009600032217748C01CFFF7ECFB03207149087067
:100970000120724908707148007801287ED16D48C5
:100980000078401E6E49C978491D8842F6D16C48EE
:10099000C078022873D16A4800793D2870D1684830
:1009A00040790B2807D166488079012803D1644833
:1009B000C0794A287BD0624840790C2807D160482A
:1009C0008079012803D15E48C0794B28F2D05C4879
:1009D00040790D2807D15A488079012803D1584819
:1009E000C0794C2863D0564840790E2807D1544826
:1009F0008079012803D15248C0794D2857D05048FA
:100A000040790F2807D14E488079012803D14C48FE
:100A1000C0794E2875D04A484079102807D14848F7
:100A20008079012803D14648C0794F2869D04448CD
:100A30004079022807D142488079012803D14048F3
:100A4000C07941285DD03E484079072807D13C480D
:100A50008079012803D13A48C079462851D03848D6
:100A60004079052807D136488079012803D13448D8
:100A7000C079442845D03248407902E047E03FE061
:100A800016E0062807D12E488079012803D12C488A
:100A9000C079452835D02A484079152807D12848FB
:100AA0008079012803D12648C079542829D028E02C
:100AB00023480079FD2822D121484079012820D1FE
:100AC0001F48807900281CD11D48C079FF2818D103
:100AD0001448007800280CD10920C0064069012183
:100AE000C90208430921C9064861FFF753FD0E49B1
:100AF00008600C480078401C0A49087001E000E0DA
:100B000000BF00200D49087001200A490870B6E6B0
:100B100010000020210000201400002018000020F8
:100B20001C000020200000202400002028000020BD
:100B30000D000020080000200A0000200C0000200A
:100B4000A60100202C0100204C00002000100240D3
:100B500000300140AC000020040000202C000020E8
:100B600070B5034C072529462046FFF709FD70BDE7
:100B70003F1F0000940B000800000020340000001C
:100B8000C8060008C80B0008340000202406000036
:100B9000D80600080000000000000000000000006F
:100BA0000000000000000000000000000000000045
:100BB0000000000000000000000000000000000035
:080BC00000000000000000002D
:04000005080000B13E
:00000001FF
