:020000040800F2
:10000000A8050020C5000008CD000008CF000008AA
:1000100000000000000000000000000000000000E0
:10002000000000000000000000000000D1000008F7
:100030000000000000000000D30000087104000868
:10004000D700000800000000D7000008D700000813
:10005000D700000855010008D7000008D7000008A5
:1000600000000000D7000008D7000008D7000008F3
:10007000D7000008D7000008D700000800000000E3
:10008000D70000080000000000000000D7000008B2
:1000900000000000D7000008D7000008D7000008C3
:1000A00000000000D700000800000000D504000890
:1000B0000348854600F03CF8004800472D0600083C
:1000C000A80500200448804704480047FEE7FEE7F3
:1000D000FEE7FEE7FEE7FEE779040008B10000084E
:1000E00030B50B46014600202022012409E00D46D0
:1000F000D5409D4205D31D469540491B2546954058
:1001000040191546521E002DF1DC30BDD2B201E07F
:100110000270401C491EFBD270470022F6E710B562
:1001200013460A4604461946FFF7F0FF204610BD65
:10013000064C0125064E05E0E36807CC2B430C3C3A
:1001400098471034B442F7D3FFF7B6FF1008000801
:10015000300800080E484169C9070FD00D490969E8
:100160000E4ACB070C494B6910D093434B61416950
:10017000C907C90F41610A4A0121D1604169890754
:1001800003D5416902221140416170471343EDE7F5
:100190000004014000040048000000480010000076
:1001A0000000002070B501235B0409260D4A0E4DA6
:1001B0005C00F606012904D0B0420DD15069984385
:1001C00008E0B04202D15069184303E0A84202D1CE
:1001D00050692043506170BDA842FCD15069A043D2
:1001E000F8E700000010024000040048F8B50026BF
:1001F0000D460446032798E0C007C00F70D00920C1
:10020000C006844201D1012103E04B48844202D15F
:100210000121FFF7C7FF22687100384688402B791B
:1002200082439B079B0F8B40134322681A43226033
:100230006A68032A7ED0022A14D1F20892001219A9
:100240000092126A0F2394467207D20E964693408C
:1002500062469A4394466B697246934062461343E2
:10026000009A13626A68012A01D0022A13D16368D6
:100270000122B24093432A7AD207D20FB2401A43E6
:100280006260A3682A7B83439207920F8A401A43D5
:10029000A3681343A360E2688243287C8007800F31
:1002A00088401043E0606868C0003DD523488169FC
:1002B000012211438161B108214889000B18986817
:1002C000B1070A0F0F21914088430921C9068C42CA
:1002D00001D1002106E018498C4202D1012101E040
:1002E00022E0022191400143996016490A680120E9
:1002F000B0406B688243DB0100D502430A604A6864
:100300006B6882439B0100D502434A608A686B6830
:100310008243DB0200D502438A60CA686B6882436D
:100320009B0200D50243CA60761C2868F04001D0C9
:1003300062E7FFE7F8BD000000040048001002403B
:10034000000001400004014001784278914204D34A
:1003500001784078081A642101E041780078081A91
:10036000C0B2704700210170417070470178427837
:10037000914202D30178407803E041780078081A6E
:100380006421081AC0B2704770B50446002543784E
:10039000FFF7ECFF00280AD0E0188078FF2109025F
:1003A00045185B1CD8B26421FFF79AFE617028469D
:1003B00070BD70B50D4604460378FFF7C5FF0228EF
:1003C00001D2002070BDE01885705B1CD8B264219A
:1003D000FFF786FE2170012070BD000010B5174A9E
:1003E0000168914204D116498A698B141A438A61C3
:1003F00082684168036B1143C26A1A4311430123A7
:1004000082695B021A401143026911434269114338
:10041000026A1143426A114302681160C269816A2B
:10042000836911431B0C0424C26823401A431143FF
:10043000826B00681143416010BD00000030014034
:1004400000100240024A5061002090611161704723
:1004500000E000E00148006870470000280000202C
:1004600002480168491C0160704700002800002014
:1004700000B5FFF7F5FF00BD1348016801221143E5
:1004800001604168114A114041600168104A114001
:1004900001600168012292049143016041683F229A
:1004A000120491434160C16A09090901C162016BEB
:1004B000FF22143291430163416B490849004163B3
:1004C0000021816070470000001002400CB8FF0856
:1004D000FFFFF6FE10B50748C169090703D5016A99
:1004E000082211430162406AC1B20348FFF761FF6D
:1004F00010BD0000003801400C01002001680A68AE
:10050000520852000A60144A0168914205D1134909
:100510008A6901239B031A438A6102694169C3699D
:10052000114382681A431143026811600268C1686E
:100530005160026A81691143026891600268D021AA
:10054000D16001680A6820231A430A6000680168C4
:100550000122114301607047003801400010024041
:1005600002E008C8121F08C1002AFAD1704770477C
:10057000002001E001C1121F002AFBD170470000DA
:1005800010B5064803210160054941600121016160
:1005900001460448FFF72AFE10BD00007400002049
:1005A000000030110004004810B503210748C902BB
:1005B000016001214160002181600161C16001464B
:1005C0000920C006FFF712FE10BD00002C0000201D
:1005D00010B5032108484902016002214160002151
:1005E00081600321C160012101614161014609204F
:1005F000C006FFF7FBFD10BD5C00002010B50A48E7
:10060000084901604B21490241600021816101627A
:10061000C16101610C22C16042618160FFF76EFF20
:1006200010BD000000380140D80000206E4C0026AC
:10063000E660267126616661A661E670E661266263
:10064000A67001272770E680667032216748FFF7A1
:1006500064FD66486638FFF785FE6548F021016055
:10066000022186604160076103214661C16009255E
:100670000146ED062846FFF7B9FD5E488269811400
:100680000A4382615A485C4A48300260FF220532C0
:1006900086604260382202620222466102610722BD
:1006A0001202C260C66206638A0186628261816349
:1006B000FFF794FE00F0A4F8FFF7CCFEA060FFF770
:1006C00073FFFFF785FFFFF799FFFFF759FF4B48CF
:1006D000F90601602021016062B668690321C90240
:1006E00088436861414DE078002817D0FFF7B2FEDB
:1006F000E169401AC82811D30920C00641690122C6
:10070000D20291434161E078401EE070FFF7A2FE03
:10071000E061FFF79FFE6762206202E0606A0028E6
:1007200013D0FFF797FE216A401AC8280DD36662DE
:10073000E078002809D00922D20650690121C902B7
:1007400008435061FFF786FEE06128486638FFF7EE
:100750001BFEE080002803D021786854491C2170DA
:100760006078002809D00128BDD1E8782178091ADD
:100770000629B8D1022815D032E021782846691818
:100780002039CA7F552AAED18A7FAA2AABD14270BE
:10079000C97F81703221E81CFFF7BFFC0320207065
:1007A0006770E2E728793D281AD0FD2818D16879CA
:1007B000012815D1A879002812D1E879FF280FD196
:1007C000E078002809D10922D20650690121C90226
:1007D00008435061FFF73EFEE061E078401CE070A6
:1007E000667027707FE70000000000207201002083
:1007F00044000020001002400030014000E100E011
:1008000010B502480721FFF71DFE10BD3F1F000075
:1008100030080008000000202C00000060050008DF
:100820005C0800082C0000207C0500007005000812
:1008300000000000000000000000000000000000B8
:1008400000000000000000000000000000000000A8
:0C0850000000000000000000000000009C
:04000005080000B13E
:00000001FF
